:020000040000FA
:100000000C9462000C948A000C948A000C948A0070
:100010000C948A000C948A000C948A000C948A0038
:100020000C948A000C948A000C948A000C948A0028
:100030000C948A000C948A000C948A000C948A0018
:100040000C94C5020C948A000C9493020C946D02DB
:100050000C948A000C948A000C948A000C948A00F8
:100060000C948A000C948A000000000024002700F1
:100070002A0000000000250028002B0000000008D6
:10008000000201000003040700000000000000005F
:1000900000000000230026002900040404040404D6
:1000A0000404020202020202030303030303010227
:1000B00004081020408001020408102001020408F6
:1000C0001020540311241FBECFEFD8E0DEBFCDBFF8
:1000D00011E0A0E0B1E0EAEEF9E002C005900D9277
:1000E000A231B107D9F721E0A2E1B1E001C01D9230
:1000F000A13CB207E1F710E0C2E6D0E004C02197CE
:10010000FE010E94ED04C136D107C9F70E949C038D
:100110000C94F3040C940000AF92BF92CF92DF9244
:10012000EF92FF920F931F93CF93DF936C017B01AC
:100130008B01040F151FEB015E01AE18BF08C0173D
:10014000D10759F06991D601ED91FC910190F081B0
:10015000E02DC6010995892B79F7C501DF91CF9173
:100160001F910F91FF90EF90DF90CF90BF90AF90D5
:100170000895FC01538D448D252F30E0842F90E0AD
:10018000821B930B541710F0CF9608950197089592
:10019000FC01918D828D981761F0A28DAE0FBF2F5B
:1001A000B11D5D968C91928D9F5F9F73928F90E0B1
:1001B00008958FEF9FEF0895FC01918D828D981720
:1001C00031F0828DE80FF11D858D90E008958FEF5D
:1001D0009FEF0895FC01918D228D892F90E0805C26
:1001E0009F4F821B91098F73992708958DE191E0AC
:1001F0000E94EA0021E0892B09F420E0822F089573
:1002000080E090E0892B29F00E94F60081110C9487
:1002100000000895FC01A48DA80FB92FB11DA35AA9
:10022000BF4F2C91848D90E001968F739927848F16
:10023000A689B7892C93A089B1898C918370806439
:100240008C93938D848D981306C00288F389E02DDA
:1002500080818F7D80830895EF92FF920F931F938B
:10026000CF93DF93EC0181E0888F9B8D8C8D981369
:100270001AC0E889F989808185FF15C09FB7F89475
:10028000EE89FF896083E889F989808183708064C1
:1002900080839FBF81E090E0DF91CF911F910F910C
:1002A000FF90EF900895F62E0B8D10E00F5F1F4F1B
:1002B0000F731127E02E8C8D8E110CC00FB607FC2A
:1002C000FACFE889F989808185FFF5CFCE010E94B8
:1002D0000A01F1CFEB8DEC0FFD2FF11DE35AFF4F1B
:1002E000F0829FB7F8940B8FEA89FB898081806246
:1002F000CFCFCF93DF93EC01888D8823B9F0AA8903
:10030000BB89E889F9898C9185FD03C0808186FDD0
:100310000DC00FB607FCF7CF8C9185FFF2CF80811F
:1003200085FFEDCFCE010E940A01E9CFDF91CF9189
:10033000089590E0FC01E458FF4F2491FC01E25540
:10034000FF4F3491FC01E656FF4FE491EE23C9F0D4
:10035000222339F0233001F1A8F4213019F12230A1
:1003600029F1F0E0EE0FFF1FEE58FF4FA591B49179
:100370008FB7F894EC91611126C030953E233C93E1
:100380008FBF08952730A9F02830C9F0243049F7ED
:10039000809180008F7D03C0809180008F77809353
:1003A0008000DFCF84B58F7784BDDBCF84B58F7DB0
:1003B000FBCF8091B0008F778093B000D2CF809137
:1003C000B0008F7DF9CF3E2BDACFCF93DF9390E053
:1003D000FC01E255FF4F249186569F4FFC0184910A
:1003E0008823D1F090E0880F991FFC01E859FF4F56
:1003F000A591B491FC01EE58FF4FC591D4916111C4
:100400000EC09FB7F8948C91E22FE0958E238C93C9
:100410002881E223E8839FBFDF91CF9108958FB7B2
:10042000F894EC91E22BEC938FBFF6CF3FB7F894A2
:100430008091170190911801A0911901B0911A01B2
:1004400026B5A89B05C02F3F19F00196A11DB11D2F
:100450003FBFBA2FA92F982F8827BC01CD01620F6B
:10046000711D811D911D42E0660F771F881F991F26
:100470004A95D1F708958F929F92AF92BF92CF92F3
:10048000DF92EF92FF924B015C010E9416026B011A
:100490007C010E9416026C197D098E099F09683E35
:1004A000734081059105A8F321E0821A9108A10803
:1004B000B10888EEC80E83E0D81EE11CF11C81143F
:1004C0009104A104B10429F7FF90EF90DF90CF9041
:1004D000BF90AF909F908F9008951F920F920FB68C
:1004E0000F9211242F933F934F935F936F937F93BA
:1004F0008F939F93AF93BF93EF93FF938DE191E021
:100500000E940A01FF91EF91BF91AF919F918F914E
:100510007F916F915F914F913F912F910F900FBEFF
:100520000F901F9018951F920F920FB60F921124E3
:100530002F938F939F93EF93FF93E0912D01F09171
:100540002E018081E0913301F091340182FD1BC0C6
:100550009081809136018F5F8F73209137018217D0
:1005600041F0E0913601F0E0E35EFE4F958F80931D
:100570003601FF91EF919F918F912F910F900FBEB8
:100580000F901F9018958081F4CF1F920F920FB695
:100590000F9211242F933F938F939F93AF93BF9309
:1005A0008091130190911401A0911501B091160151
:1005B0003091120123E0230F2D3758F50196A11D2C
:1005C000B11D209312018093130190931401A09305
:1005D0001501B09316018091170190911801A09117
:1005E0001901B0911A010196A11DB11D8093170147
:1005F00090931801A0931901B0931A01BF91AF9184
:100600009F918F913F912F910F900FBE0F901F9050
:10061000189526E8230F0296A11DB11DD2CFCF92C7
:10062000DF92EF92FF920F931F93E82FF92F05C0EF
:10063000015011092109310961F190819623941724
:10064000B9F305C0015011092109310911F1908157
:1006500096239413F7CFC12CD12CE12CF12C0AC096
:100660008FEFC81AD80AE80AF80A0C151D052E05DE
:100670003F0579F080818623841791F36C2D7D2DC1
:100680008E2D9F2D1F910F91FF90EF90DF90CF90B7
:10069000089560E070E080E090E01F910F91FF907E
:1006A000EF90DF90CF900895CF93DF93EDE1F1E0ED
:1006B0001382128288EE93E0A0E0B0E084839583F9
:1006C000A683B78384E091E09183808385EC90E0FA
:1006D0009587848784EC90E09787868780EC90E00C
:1006E000918B808B81EC90E0938B828B82EC90E0FD
:1006F000958B848B86EC90E0978B868B118E128E77
:10070000138E148ECAEBD1E086E0888387E089835C
:100710001A8261E086E00E94E50160E089810E9422
:10072000E50180E29EE4A0E0B0E08B839C83AD8392
:10073000BE83DF91CF910895789484B5826084BDA3
:1007400084B5816084BD85B5826085BD85B58160D5
:1007500085BD80916E00816080936E001092810053
:10076000809181008260809381008091810081600E
:1007700080938100809180008160809380008091CF
:10078000B10084608093B1008091B000816080935B
:10079000B00080917A00846080937A0080917A0022
:1007A000826080937A0080917A00816080937A00E1
:1007B00080917A00806880937A001092C10061E095
:1007C0008DE00E94E50161E08CE00E94E50161E0BE
:1007D0008BE00E94E50161E08AE00E94E501E09182
:1007E0002D01F0912E0182E08083E0912901F091AA
:1007F0002A011082E0912B01F0912C018FEC808373
:1008000010923501E0913101F091320186E0808350
:10081000E0912F01F0913001808180618083E0912F
:100820002F01F0913001808188608083E0912F0159
:10083000F0913001808180688083E0912F01F091F8
:10084000300180818F7D808368EB7BE080E090E0E9
:100850000E943B02C3E0D0E093E2E92EF12C28E3B2
:10086000C22ED12C30E0A32E30E0B32E8091BC01FB
:10087000882329F061E08091BA010E94E50160E0DF
:100880008091BA010E949901CE010197F1F761E0D0
:100890008091BA010E949901C7010197F1F760E0C8
:1008A0008091BA010E9499018091BC01882329F0AE
:1008B00060E08091BA010E94E5018091BB0190E067
:1008C000FC01E255FF4F6491FC01E656FF4FE491B5
:1008D000F0E0EE0FFF1FE057FF4F859194910091DC
:1008E000BD011091BE012091BF013091C0013F7048
:1008F000462F0E940F03611571058105910529F0AE
:100900006F5F7F4F8F4F9F4F9F70CB01B6010E944B
:10091000D9048B0170931C0160931B0161E08DE091
:100920000E94990160E08CE00E94990161E08AE0F8
:100930000E94990160E08BE00E9499010431110549
:1009400060F560E08DE00E94990161E08CE00E941A
:10095000990160E08AE00E94990161E08BE00E94C9
:10096000990164EF71E080E090E00E943B0260E05A
:100970008DE00E94990161E08CE00E94990160E0A5
:100980008AE00E94990160E08BE00E94990168EC86
:1009900070E080E090E00E943B02A114B10409F4F1
:1009A00065CF0E94F600882309F460CF0E94000002
:1009B0005DCFAA1BBB1B51E107C0AA1FBB1FA61717
:1009C000B70710F0A61BB70B881F991F5A95A9F7F8
:1009D00080959095BC01CD010895EE0FFF1F059005
:1009E000F491E02D0994F894FFCF000000002C0151
:0C09F0008C00B9007901EA00C800DC00AE
:107E0000112484B714BE81FFF0D085E080938100F7
:107E100082E08093C00088E18093C10086E0809377
:107E2000C20080E18093C4008EE0C9D0259A86E02C
:107E300020E33CEF91E0309385002093840096BBD3
:107E4000B09BFECF1D9AA8958150A9F7CC24DD24C4
:107E500088248394B5E0AB2EA1E19A2EF3E0BF2EE7
:107E6000A2D0813461F49FD0082FAFD0023811F036
:107E7000013811F484E001C083E08DD089C08234E0
:107E800011F484E103C0853419F485E0A6D080C0E4
:107E9000853579F488D0E82EFF2485D0082F10E0AE
:107EA000102F00270E291F29000F111F8ED06801E7
:107EB0006FC0863521F484E090D080E0DECF843638
:107EC00009F040C070D06FD0082F6DD080E0C81688
:107ED00080E7D80618F4F601B7BEE895C0E0D1E017
:107EE00062D089930C17E1F7F0E0CF16F0E7DF06D8
:107EF00018F0F601B7BEE89568D007B600FCFDCFD4
:107F0000A601A0E0B1E02C9130E011968C91119780
:107F100090E0982F8827822B932B1296FA010C0160
:107F200087BEE89511244E5F5F4FF1E0A038BF0790
:107F300051F7F601A7BEE89507B600FCFDCF97BE46
:107F4000E89526C08437B1F42ED02DD0F82E2BD052
:107F50003CD0F601EF2C8F010F5F1F4F84911BD097
:107F6000EA94F801C1F70894C11CD11CFA94CF0C13
:107F7000D11C0EC0853739F428D08EE10CD085E9AC
:107F80000AD08FE07ACF813511F488E018D01DD067
:107F900080E101D065CF982F8091C00085FFFCCF94
:107FA0009093C60008958091C00087FFFCCF809118
:107FB000C00084FD01C0A8958091C6000895E0E648
:107FC000F0E098E1908380830895EDDF803219F02E
:107FD00088E0F5DFFFCF84E1DECF1F93182FE3DFCA
:107FE0001150E9F7F2DF1F91089580E0E8DFEE27F6
:047FF000FF270994CA
:027FFE00040479
:00000001FF
